:020000040000fa
:080000000002040000000000f2
:020000040000fa
:0400080042070000ab
:020000040000fa
:04000c0042070000a7
:020000040000fa
:0400100042070000a3
:020000040000fa
:04001400420700009f
:020000040000fa
:04001800420700009b
:020000040000fa
:04001c004207000097
:020000040000fa
:040020004207000093
:020000040000fa
:04002400420700008f
:020000040000fa
:04002800420700008b
:020000040000fa
:04002c00fa020000d4
:020000040000fa
:040030004207000083
:020000040000fa
:04003400560500006d
:020000040000fa
:04003800420700007b
:020000040000fa
:04003c006603000057
:020000040000fa
:040040004207000073
:020000040000fa
:04004400c0050000f3
:020000040000fa
:040048002606000088
:020000040000fa
:04004c004207000067
:020000040000fa
:040050004207000063
:020000040000fa
:04005400420700005f
:020000040000fa
:04005800420700005b
:020000040000fa
:04005c00a8040000f4
:020000040000fa
:040060004207000053
:020000040000fa
:04006400420700004f
:020000040000fa
:04006800420700004b
:020000040000fa
:04006c004207000047
:020000040000fa
:040070004207000043
:020000040000fa
:04007400420700003f
:020000040000fa
:04007800420700003b
:020000040000fa
:04007c004207000037
:020000040000fa
:040080004207000033
:020000040000fa
:04008400420700002f
:020000040000fa
:04008800420700002b
:020000040000fa
:04008c004207000027
:020000040000fa
:040090004207000023
:020000040000fa
:040094003006000032
:020000040000fa
:04009800420700001b
:020000040000fa
:04009c004207000017
:020000040000fa
:0400a0004207000013
:020000040000fa
:0400a400420700000f
:020000040000fa
:0400a800420700000b
:020000040000fa
:0400ac004207000007
:020000040000fa
:0400b0004207000003
:020000040000fa
:0400b40042070000ff
:020000040000fa
:0400b80042070000fb
:020000040000fa
:0400bc00d00300006d
:020000040000fa
:0400c0003c040000fc
:020000040000fa
:0400c40042070000ef
:020000040000fa
:0400c80042070000eb
:020000040000fa
:0400cc0042070000e7
:020000040000fa
:0400d00042070000e3
:020000040000fa
:0400d40042070000df
:020000040000fa
:0400d80042070000db
:020000040000fa
:0400dc0042070000d7
:020000040000fa
:0400e00042070000d3
:020000040000fa
:0400e40042070000cf
:020000040000fa
:0400e80042070000cb
:020000040000fa
:0400ec0042070000c7
:020000040000fa
:0400f00042070000c3
:020000040000fa
:0400f40042070000bf
:020000040000fa
:0400f80042070000bb
:020000040000fa
:0400fc0042070000b7
:020000040000fa
:0401000042070000b2
:020000040000fa
:0401040042070000ae
:020000040000fa
:0401080042070000aa
:020000040000fa
:04010c0042070000a6
:020000040000fa
:0401100042070000a2
:020000040000fa
:04011400420700009e
:020000040000fa
:04011800420700009a
:020000040000fa
:04011c004207000096
:020000040000fa
:040120004207000092
:020000040000fa
:04012400420700008e
:020000040000fa
:04012800420700008a
:020000040000fa
:04012c004207000086
:020000040000fa
:040130004207000082
:020000040000fa
:04013400420700007e
:020000040000fa
:04013800420700007a
:020000040000fa
:04013c004207000076
:020000040000fa
:040140004207000072
:020000040000fa
:04014400420700006e
:020000040000fa
:04014800420700006a
:020000040000fa
:04014c004207000066
:020000040000fa
:040150004207000062
:020000040000fa
:04015400420700005e
:020000040000fa
:04015800420700005a
:020000040000fa
:04015c004207000056
:020000040000fa
:040160004207000052
:020000040000fa
:04016400420700004e
:020000040000fa
:04016800420700004a
:020000040000fa
:04016c004207000046
:020000040000fa
:040170004207000042
:020000040000fa
:04017400420700003e
:020000040000fa
:04017800420700003a
:020000040000fa
:04017c004207000036
:020000040000fa
:040180004207000032
:020000040000fa
:04018400420700002e
:020000040000fa
:04018800420700002a
:020000040000fa
:04018c004207000026
:020000040000fa
:040190004207000022
:020000040000fa
:04019400420700001e
:020000040000fa
:04019800420700001a
:020000040000fa
:04019c004207000016
:020000040000fa
:0401a0004207000012
:020000040000fa
:0401a400420700000e
:020000040000fa
:0401a800420700000a
:020000040000fa
:0401ac004207000006
:020000040000fa
:0401b0004207000002
:020000040000fa
:0401b40042070000fe
:020000040000fa
:0401b80042070000fa
:020000040000fa
:0401bc0042070000f6
:020000040000fa
:0401c00042070000f2
:020000040000fa
:0401c40042070000ee
:020000040000fa
:0401c80042070000ea
:020000040000fa
:0401cc0042070000e6
:020000040000fa
:0401d00042070000e2
:020000040000fa
:0401d40042070000de
:020000040000fa
:0401d80042070000da
:020000040000fa
:0401dc0042070000d6
:020000040000fa
:0401e00042070000d2
:020000040000fa
:0401e40042070000ce
:020000040000fa
:0401e80042070000ca
:020000040000fa
:0401ec0042070000c6
:020000040000fa
:0401f00042070000c2
:020000040000fa
:0401f40042070000be
:020000040000fa
:0401f80042070000ba
:020000040000fa
:0401fc0042070000b6
:020000040000fa
:0402000042070000b1
:020000040000fa
:0402040042070000ad
:020000040000fa
:0402080042070000a9
:020000040000fa
:04020c0042070000a5
:020000040000fa
:0402100042070000a1
:020000040000fa
:04021400420700009d
:020000040000fa
:040218004207000099
:020000040000fa
:04021c004207000095
:020000040000fa
:040220004207000091
:020000040000fa
:04022400420700008d
:020000040000fa
:040228004207000089
:020000040000fa
:04022c004207000085
:020000040000fa
:040230004207000081
:020000040000fa
:04023400420700007d
:020000040000fa
:040238004207000079
:020000040000fa
:04023c004207000075
:020000040000fa
:040240004207000071
:020000040000fa
:04024400420700006d
:020000040000fa
:040248004207000069
:020000040000fa
:04024c004207000065
:020000040000fa
:040250004207000061
:020000040000fa
:04025400420700005d
:020000040000fa
:040258004207000059
:020000040000fa
:04025c004207000055
:020000040000fa
:040260004207000051
:020000040000fa
:04026400420700004d
:020000040000fa
:040268004207000049
:020000040000fa
:04026c004207000045
:020000040000fa
:040270004207000041
:020000040000fa
:04027400420700003d
:020000040000fa
:040278004207000039
:020000040000fa
:04027c004207000035
:020000040000fa
:040280004207000031
:020000040000fa
:100400004f1521000eff21000e01880000000000a2
:10041000000020000000e000020032000001200087
:100420002002880014000700980207000000e00086
:1004300003003a0080032100010020000200370081
:100440000000200001002000810f70000100320038
:100450000f000700000020000000e0000200320052
:1004600000000200000000008607020000000000fb
:100470000040da000000fe00200020000000e00044
:1004800002003200100020009001880000000600e9
:10049000a1028800800478000000eb001f003700f4
:1004a000e284440054a0b4009905ba00e2844400f8
:1004b00054a0b4009906ba00e284440054a0b400e9
:1004c0000006eb00476fde00fd07b200ae018800ba
:1004d000636ce10003003a000ad801000000eb0061
:1004e0000e003700606ce10008003a00004deb00a0
:1004f0000a05e800020039003420ec000af0a000f0
:100500008b05e900f9ff3e00040037006168e10057
:10051000010032000086eb000b00070019c7ba008b
:100520000e04e0001905ba0003003a000a00e000da
:10053000dbff3a0000000600fe07b200ae028800b2
:100540008a047800f5ff37000cd0a300e20f4d00bd
:100550001c00390089027800354dba000a05e80010
:10056000020039003420ec000af0a0008b05e900fd
:100570000f003200254dba000a05e80002003900dc
:100580003420ec000af0a0008b05e90008003200de
:100590000c00e0000600320015cdba000a05e800a4
:1005a000020039003420ec000af0a0008b05e900bd
:1005b0008984e80054a0b4000b00e000e2ff3a0098
:1005c000000006009902ba00055d78008b05e9007d
:1005d000f7ff3200c82ade00055d78008b05e900d0
:1005e000f3ff32000c00e000f1ff320019ddba0029
:1005f000eeff3700809fbe000000fa00917080007f
:1006000000022000008060000000e00009003a00c5
:10061000200a800070818800718180003081800014
:1006200000805000a080880010c0b30047f0b700e1
:1006300005003700200a8000308188000200370062
:10064000200a800020818800000a80006800600085
:100650000000e000faff3a00a180800000f02e00c8
:10066000808f500004003e00a1808000f0612800cf
:10067000808f500011003e00010a800080ff2f0093
:1006800000806000000a88000000000000000000f8
:10069000000000000000000000000000010a8000cf
:1006a00080ff2f00008060000000a000000a88008a
:1006b0004770ef0000b02e00a08088000028a9003d
:1006c0000080fa004f00be0000400600809fbe0080
:1006d0000000fa0090708000700060000000e000f0
:1006e00009003a00600a80008081880081818000d2
:1006f00040818000008050008080880010c0b300de
:1007000045f0b70005003700600a8000408188008e
:1007100002003700600a800020818800400a8000c3
:10072000680060000000e000faff3a00818080006d
:1007300000f02e00808f500004003e008180800079
:10074000f0612800808f500011003e00410a8000b7
:1007500080ff2f0000806000400a88000000000039
:100760000000000000000000000000000000000089
:10077000410a800080ff2f00008060000000a00080
:10078000400a88004570ef0000a92b008080880097
:1007900000a8a9000080fa004f00be00004006003b
:1007a000809fbe000000fa00917080000040200091
:1007b000008060000000e00009003a00a00a80000c
:1007c00090818800918180005081800000805000dd
:1007d0007080880010c0b30044f0b70005003700f7
:1007e000a00a80005081880002003700a00a800023
:1007f00020818800800a8000680060000000e0001e
:10080000faff3a007180800000f02e00808f5000c7
:1008100004003e0071808000f0612800808f50004d
:1008200011003e00810a800080ff2f0000806000e0
:10083000800a8800000000000000000000000000a6
:100840000000000000000000810a800080ff2f00ef
:10085000008060000000a000800a88004470ef0063
:1008600000a92b007080880004a8a9000080fa006d
:100870004f00be0000400600809fbe000000fa004e
:100880009170800000042000008060000000e00003
:1008900009003a00e00a8000a0818800a181800060
:1008a00060818000008050009080880010c0b300fc
:1008b00046f0b70005003700e00a8000608188003c
:1008c00002003700e00a800020818800c00a800012
:1008d000680060000000e000faff3a0091808000ac
:1008e00000f02e00808f500004003e0091808000b8
:1008f000f0612800808f500011003e00c10a800086
:1009000080ff2f0000806000c00a88000000000007
:1009100000000000000000000000000000000000d7
:10092000c10a800080ff2f00008060000000a0004e
:10093000c00a88004670ef0000a92b009080880054
:1009400004c8a9000080fa004f00be000040060065
:10095000809fbe00829fbe003200f8003400f80085
:1009600010002000a00188001000200090018800e5
:10097000000000000000fa0000188000608088007d
:1009800010188000508088005180800060808000b6
:1009900000805000f08088003108210091407800ec
:1009a00030c6b30080cf50001b003e0083d0bf0094
:1009b0000080fb00800040006008210000804000b3
:1009c000100078002084880083d0bf000080fb00e6
:1009d000f18080000001400060082100000041001b
:1009e00001087800728a8000838a80002084800059
:1009f000cf80de000001510081815900f08080002d
:100a0000cf80de000200400083804800708a8800aa
:100a1000818a88001b0037008370ef0083d0bf00fd
:100a20000080fb0080004000600821000080400042
:100a3000100078002084880083d0bf000080fb0075
:100a4000f1808000000140006008210000004100aa
:100a500001087800728a8000838a800020848000e8
:100a6000cf80de000001510081815900f0808000bc
:100a7000cf80de000200400083804800708a88003a
:100a8000818a880083d0bf000040e80083f0b7006f
:100a900001a8a9000080fa003400f9003200f90032
:100aa0004f01be004f00be0000400600809fbe0008
:100ab0000000fa0010808000e70f500004003c00a6
:100ac000108080000000e800108088000b003700d4
:100ad0000230ef00810021009140780009d0bf0072
:100ae00080cf500004003d0008d0bf000040e80067
:100af00008f0b700010037000870ef0004d0bf0015
:100b00000000fb004012880005d0bf000000fb0081
:100b10004012880006d0bf000000fb004012880091
:100b200007d0bf000000fb0040128800f083800067
:100b3000e30f500007003c007cd0bf000004e00041
:100b400006003200f08380000000e800f083880097
:100b5000020037007e30ef007c70ef000068a900d3
:100b600000d0bf000004e00002003a0010c0b30053
:100b700000f0b7000080fa004f00be000040060001
:100b8000801f78000000fa0044d0bf00e14f500001
:100b900003003a0020c0b30044f0b7000100370062
:100ba0004470ef0045d0bf00e14f500003003a0011
:100bb00020c0b30045f0b700010037004570ef00da
:100bc00046d0bf00e14f500003003a0020c0b30000
:100bd00046f0b700010037004670ef0047d0bf0075
:100be000e14f500003003a0020c0b30047f0b700c7
:100bf000010037004770ef0044d0bf000004e00060
:100c00000c003a0045d0bf000004e00009003a00a3
:100c100050828000306188005082800030628800fd
:100c20004870ef007d70ef008170ef008270ef0080
:100c30000200370010c0b30048f0b70000e8a90078
:100c40000080fa004f007800004006000000fa0023
:100c500013e1a9000108a9000080fa000040060085
:100c60003600f800809fbe00829fbe00849fbe00b9
:100c7000869fbe000000fa000368a900708a800009
:100c8000818a80001027b0000180b0004206200059
:100c9000030020007e00070000007800908a880092
:100ca0006ad0bf00e84f50000b003e006ad0bf0082
:100cb0000080fb00918a8000000140006005210057
:100cc00000004100010878006ad0bf000040e80041
:100cd0006af0b700640037006ad0bf000080fb00f4
:100ce000918a800000014000600521000000410061
:100cf00001087800b08280006101b900c0828000e4
:100d0000cf80de000201400083814800d082800055
:100d1000cf80de000201400083814800e082800035
:100d2000cf80de000201400083814800f082800015
:100d3000cf80de00020140008381480000838000f4
:100d4000cf80de00020140008381480010838000d4
:100d5000cf80de00020140008381480020838000b4
:100d6000cf80de0002014000838148003083800094
:100d7000cf80de0002014000838148004083800074
:100d8000cf80de000200400083804800a2002000e7
:100d9000030020003e00070000007800008188006a
:100da00000818000cf80de00625e20008289b90071
:100db000e002b9008401780003014100635e200075
:100dc0000300b8000101410082007800823e20004b
:100dd000030020002e000700a0838800b183880054
:100de000a2838000b38380000080eb008080eb0052
:100df000800f5100818f590009003500a2838000c7
:100e0000b38380001000200001002000800f5100fb
:100e1000818f590002003c007430ef007630ef0003
:100e20008283800093838000a0838000b183800050
:100e300002004000838048008083880091838800fe
:100e40008083800091838000a200200003002000a6
:100e50000f00070000007800708388006a70ef00c0
:100e600010c0b3006bf0b7000080fa004f03be0063
:100e70004f02be004f01be004f00be003600f90019
:100e8000004006000040da000000fe0000000500ff
:100e9000839f68000100e00002003d006000100038
:100ea000e08018000300e00002003d006001110036
:100eb000e0811900050007004f00e00002003b0040
:100ec00060001000e0801800000006006022b800fa
:100ed000060220000000d0008180d2000482d200ef
:100ee0008582d2000000a0000202520083825a00d4
:100ef000030031000202420083824a000000a10088
:0c0f00000603e900f3ff3a0000000600c1
:020000040000fa
:100f0c000000fa00042eef00142eef003000200039
:100f1c0000708800d0472000807088000c2eef00f5
:100f2c0000472000e07088000a2eef001a2eef0018
:100f3c00062eef00162eef00300020007070880097
:100f4c0010002000f0708800113a8000f00b200097
:100f5c0000816000600420007105200023742000d3
:100f6c008049780081497800824978008135800079
:100f7c00f00f2800808060000060220001007000eb
:100f8c00803588008135800000f82f00808060005b
:100f9c00a0022000010070008035880071358000af
:100fac0000f82f00808060005002200001007000cb
:100fbc007035880071358000f00f2800808060004b
:100fcc00004022000100700070358800103a80004b
:100fdc00000178000260a000600420007105200070
:100fec002374200080497800814978008249780078
:100ffc0000042300203a88004827ef004e27ef001a
:10100c0030042000303a88004420a90044c0a900d4
:10101c0044e0a9004480a9001200200080072000b1
:10102c00a1092000337420008049780081497800a0
:10103c008249780012002000600420007105200015
:10104c002374200080497800814978008249780017
:10105c0000000000103a8000610060000000e00019
:10106c00fcff3a0031428000f0f82f000080600055
:10107c000040a0003042880001428000f0f82f00b0
:10108c00008060000040a000004288009142800077
:10109c00f0f82f00008060000040a0009042880013
:1010ac0011428000f0f82f00008060000040a0008a
:1010bc001042880091428000f08f2f000080600069
:1010cc000080a0009042880010c02100000a880017
:1010dc004221ef000028a9002028a80010c0210000
:1010ec00400a88004a21ef0000a8a90020a8a80007
:1010fc0010c02100800a88005221ef0004a8a9002a
:10110c0024a8a80010c02100c00a88005a21ef00b2
:10111c0004c8a90024c8a80080032000101288006d
:10112c0010002000201288004001280000128800c6
:10113c00404e28000019880021e3a90080402000bf
:10114c001019880030f021002019880000102000b0
:10115c00401988002e23ef007000200080198800b1
:10116c003223ef002623ef0060c0b30024e3b70066
:10117c002119800000f02100010070002019880066
:10118c0021a8a80021e3a8000021ef00e09327008c
:10119c001008880000032800200888000068a900b7
:1011ac002068a80005e1a8000070ef000000000016
:1011bc0000d0bf000004e000fdff32004000200022
:1011cc00106088000080eb0020608800062cef0087
:1011dc000a2cef001a2cef001e2cef000008200048
:1011ec0000618800000820000062880000082000d0
:1011fc000063880000402700e3c120001132240066
:10120c00d2bc2a008209780081097800106188001c
:10121c0000402700e3c1200011322400d2bc2a0078
:10122c008209780081097800106288000000eb00c8
:10123c00e3c1200011322400d2bc2a0082097800bc
:10124c008109780010638800b00f2000e3c12000f2
:10125c0011322400d2bc2a0082097800810978005e
:10126c0020618800b00f2000e3c12000113224005f
:10127c00d2bc2a008209780081097800206288009b
:10128c00b00f2000e3c1200011322400d2bc2a0090
:10129c00820978008109780020638800262cef00f1
:1012ac00462cef00662cef00282cef00482cef00aa
:1012bc00682cef002a2cef004a2cef006a2cef0070
:1012cc002c2cef004c2cef006c2cef00322cef0090
:1012dc00522cef00722cef00342cef00542cef004a
:1012ec00742cef003a2cef005a2cef007a2cef0004
:1012fc003c2cef005c2cef007c2cef003e2cef0024
:10130c005e2cef007e2cef0001eca8000621ef0014
:10131c001021ef00603f2c006008880081088000dd
:10132c00f0fc2f00008060000050a00080088800b6
:10133c0000e8a90020e8a80011e1a8000a21ef00ac
:10134c001221ef00404f2f00700888009108800098
:10135c000003200001007000900888000108a9001b
:10136c002108a80013e1a9001421ef001e21ef00b1
:10137c0060872f00d0088800f1088000f0fc2f0057
:10138c0000806000f00888000368a9002368a800aa
:10139c001fe1a8000230ef00046ea900048ea90022
:1013ac00a0c0b30022f0b70000a22800b0818800d2
:1013bc0000a92b00c081880000b02e00d0818800cd
:1013cc00000e2600e08188000007230000828800c0
:1013dc00008280000000ea00f081880000102000ec
:1013ec00108288004470ef004570ef004670ef00eb
:1013fc004770ef004870ef00807521005082880024
:10140c000870ef001630ef001830ef007d70ef0021
:10141c007e30ef005430ef006a70ef006b70ef001d
:10142c006c70ef007870ef002030ef008070ef00f0
:10143c008170ef008270ef008370ef007430ef006a
:10144c007630ef007030ef007230ef006e30ef004e
:10145c0010c0b30009f0b700f2010700ec0207005e
:10146c0070838000a1020700020007002901070019
:10147c00f9ff37000200fa00000f78001e00780018
:10148c00004078006f4060007040400004f0b700ee
:10149c00000f20001e0060004400de0000407800b9
:1014ac000042b00005f0b70000f020001e00600004
:1014bc004800de00004078000043b00006f0b700a2
:1014cc001e0078004c00de00004078000044b000a4
:1014dc0007f0b7000080fa00000006000400fa00d4
:1014ec00000f78001107980008d0bf000004e0003e
:1014fc0018003a001e00780000407800ef406000b1
:10150c0000c9b30000c0400004f0b700000f200079
:10151c001e0060004400de00004078000042b00075
:10152c0005f0b70000f020001e0060004800de004f
:10153c00004078000043b00006f0b7001e007800b1
:10154c004c00de00004078000044b00007f0b7000b
:10155c00190037001e009000004078006f406000ba
:10156c007040400004f0b7009e009000000f200077
:10157c00008060004400de008040780000cab300a8
:10158c0000c0400005f0b7009e00900000f0200065
:10159c00008060004800de00004078000043b0008e
:1015ac0006f0b7001e0090004c00de0000407800f2
:1015bc000044b00007f0b7000080fa0000000600fd
:1015cc000600fa00000f7800110798002207980017
:1015dc0008d0bf000000fb00e10f50001c003200df
:1015ec00e20f5000340032000000e0004c003a00e2
:1015fc001e00780000407800ef40600000c9b30086
:10160c0000c0400004f0b700000f20001e00600076
:10161c004400de00004078000042b00005f0b70046
:10162c0000f020001e0060004800de000040780042
:10163c000043b00006f0b7001e0078004c00de003e
:10164c00004078000044b00007f0b70034003700c9
:10165c001e009000004078006f4060007040400019
:10166c0004f0b7009e009000000f20000080600086
:10167c004400de008040780000cab30000c0400087
:10168c0005f0b7009e00900000f020000080600084
:10169c004800de00004078000043b00006f0b700c0
:1016ac001e0090004c00de00004078000044b000aa
:1016bc0007f0b7001a0037002e00900000407800a9
:1016cc006f4060007040400004f0b700ae00900026
:1016dc00000f2000008060004400de000040780015
:1016ec000042b00005f0b700ae00900000f0200002
:1016fc00008060004800de008040780000cbb30022
:10170c0000c0400006f0b7002e0090004c00de0038
:10171c00004078000044b00007f0b7000000000063
:10172c000080fa00000006000800fa00000f7800a4
:10173c0011079800220798003307980008d0bf00c3
:10174c000000fb00e10f500022003200e10f5000be
:10175c0003003c000000e000060032006b00370084
:10176c00e20f500035003200e30f50004d00320004
:10177c00660037001e00780000407800ef406000e3
:10178c0000c9b30000c0400004f0b700000f2000f7
:10179c001e0060004400de00004078000042b000f3
:1017ac0005f0b70000f020001e0060004800de00cd
:1017bc00004078000043b00006f0b7001e0078002f
:1017cc004c00de00004078000044b00007f0b70089
:1017dc004e0037001e009000004078006f40600003
:1017ec007040400004f0b7009e009000000f2000f5
:1017fc00008060004400de008040780000cab30026
:10180c0000c0400005f0b7009e00900000f02000e2
:10181c00008060004800de00004078000043b0000b
:10182c0006f0b7001e0090004c00de00004078006f
:10183c000044b00007f0b700340037002e009000d1
:10184c00004078006f4060007040400004f0b7002a
:10185c00ae009000000f2000008060004400de000d
:10186c00004078000042b00005f0b700ae009000d8
:10187c0000f02000008060004800de00804078000e
:10188c0000cbb30000c0400006f0b7002e00900063
:10189c004c00de00004078000044b00007f0b700b8
:1018ac001a0037003e009000004078006f40600046
:1018bc007040400004f0b700be009000000f200004
:1018cc00008060004400de00004078000042b00060
:1018dc0005f0b700be00900000f020000080600012
:1018ec004800de00004078000043b00006f0b7006e
:1018fc003e0090004c00de008040780000ccb3002d
:10190c0000c0400007f0b700000000000080fa00a3
:10191c00000006000000fa00008180000000e000da
:10192c0003003400046ea900048ea80008003700e0
:10193c00008180000000e00003003d00046ea80060
:10194c00048ea90002003700046ea900048ea900c1
:10195c000080fa00000006000200fa00000f780078
:10196c00108280000000ea009e0f500007003d002e
:10197c00108280009e007800808f500003003d0094
:10198c000000eb00000f7800100037001e007800fc
:10199c000000e00007003400008280009e00780008
:1019ac00808f50000900340001828000010f780004
:1019bc0006003700f08180009e007800808f500078
:1019cc0002003d00f1818000010f78001e007800bc
:1019dc000080fa00000006000000fa0048d0bf00aa
:1019ec00e14f500012003a00608280000000e000dd
:1019fc0001003d00670040004380de00800078005d
:101a0c00508280000080400030618800518280004c
:101a1c00708280000000e00001003d006700400083
:101a2c004380de00008050003062880004003700e4
:101a3c0050828000306188005082800030628800c3
:101a4c000080fa00000006000000fa00718080009f
:101a5c00c081800000805000b0808800b080800081
:101a6c00bdff0700b080880081808000c0818000ad
:101a7c0000805000c0808800c0808000b6ff070046
:101a8c00c080880091808000c08180000080500060
:101a9c00d0808800d0808000afff0700d080880005
:101aac00a1808000c081800000805000e080880010
:101abc00e0808000a8ff0700e0808800e0808000c4
:101acc000000e0000a003d00b1808000c080800072
:101adc000080500060828800c08080008000ea0096
:101aec00b0808000008050007082880008003700b1
:101afc00c1808000b080800000804000608288003f
:101b0c00c1808000b080800000805000708288000e
:101b1c006082800090ff07006082880070828000e5
:101b2c008dff0700708288000080fa00000006001c
:101b3c000000fa0081d0bf00e14f500002003a00d3
:101b4c005030ef005230ef00f18080009082800026
:101b5c00808f500002003400f0808000908288005a
:101b6c00f180800080828000808f500002003d0058
:101b7c00f0808000808288000080fa00000006005f
:101b8c000200fa00000f780081d0bf00e14f500036
:101b9c0002003a005030ef005230ef00908280008b
:101bac009e007800808f5000020034009e00780068
:101bbc0091828800808280009e007800808f500087
:101bcc0002003d009e007800818288000080fa00af
:101bdc00000006000200fa00000f780081d0bf0060
:101bec00e14f500003003a000080eb008082880037
:101bfc005230ef00908280009e0f500002003100a6
:101c0c001e00780090828800808280009e0f500019
:101c1c00020036001e007800808288000080fa00e6
:101c2c00000006000000fa007dd0bf000004e000b8
:101c3c001a003a0081d0bf00e14f5000030032007f
:101c4c0082d0bf00e14f500011003a007cd0bf00a1
:101c5c00e14f50000e00320010c0b3007df0b70011
:101c6c0010c0b3007cf0b7005430ef007030ef00c0
:101c7c007230ef005082800030618800508280000a
:101c8c00306288006b70ef006c70ef0088003700da
:101c9c006dff070050ff0700850037006bd0bf00b9
:101cac00e14f500082003a006cd0bf00e14f500071
:101cbc000a003a006c70ef00708380000000e000b6
:101ccc000300340010c0b30078f0b70001003700f7
:101cdc007870ef006e30ef005f003700a08280005c
:101cec00e10f500029003e0081d0bf00e14f5000b1
:101cfc0013003a00f08180000000e00001003d007c
:101d0c00670040004380de00800078005082800035
:101d1c000080400030618800f08180000000e0000d
:101d2c0001003d00670040004380de008000780029
:101d3c0050828000008040003062880046003700ee
:101d4c00008280000000e00001003d0067004000c0
:101d5c004380de00800078005082800000804000cc
:101d6c0030618800008280000000e00001003d002e
:101d7c00670040004380de008000780050828000c5
:101d8c00008040003062880033003700f080800013
:101d9c006101b900f0808000cf80de00809ab9002c
:101dac00828bb90086027800050242000010b80050
:101dbc000102420084007800440add00cc02de00ff
:101dcc00850272004402dd00027122000300200033
:101ddc000400be002bfc070000007800d0838800b4
:101dec00708380000000e0000e00350070838000de
:101dfc0080007800d08380008080400080702000bc
:101e0c00808f5000140036005082800030618800b2
:101e1c00508280003062880010c0b30080f0b700a0
:101e2c000d0037007083800080007800d083800024
:101e3c0080805000708f2f00808f500006003e0075
:101e4c0050828000306188005082800030628800af
:101e5c0010c0b30080f0b700a08280000000e80042
:101e6c00a08288006b70ef0010c0b3007cf0b7004c
:101e7c0080d0bf00e14f50000d003a0022d0bf00cf
:101e8c000000fb008000ea00f0808000808f500092
:101e9c0007003d0022d0bf008000fb00f0808000d6
:101eac00808f5000020034007d70ef008070ef00d6
:101ebc000080fa00000006000000fa006bd0bf00a2
:101ecc00e14f500007003a00a0838000b1838000ee
:101edc008000780070838000008040007083880050
:101eec006b70ef000080fa00000006000c00fa0096
:101efc00500798005e0090000000e00004003d00d8
:101f0c005e0090000000ea005007980001003700c6
:101f1c00000000000000eb00000f78000000eb0058
:101f2c00100798000000eb00200798000000eb0061
:101f3c00300798000000eb0040079800de0090008e
:101f4c00803e200000017800110009008200d800ba
:101f5c0030079800de009000803e200000017800e1
:101f6c00110009008200d8008000fd004007980095
:101f7c004e009000c200de00b04721000008b800ff
:101f8c000100d100200798004e019000c210de0025
:101f9c00b04721000008b8008100d10040062000a5
:101fac008088b9000000510040079800ce009000d6
:101fbc00d0cc2c000008b8004308de0010079800b5
:101fcc004e019000d0cc2c000010b8004308de006d
:101fdc00ea00b90000005100000f78003e009000ac
:101fec004c00dd009e0040002e0090004800dd00fb
:101ffc00808040001e0090004400dd000080400006
:10200c00400798004e0090000080fa000000060087
:10201c000000fa00d180800000712200808f5000f7
:10202c00040034008170ef0010c0b30082f0b700e0
:10203c000a003700d1808000008f2d00808f500067
:10204c0004003d0010c0b30081f0b7008270ef00b7
:10205c00020037008170ef008270ef000080fa0000
:04206c00000006006a
:020000040000fa
:10207000001000005401000080000000000000007b
:020000040000fa
:04afe000cfff00009f
:020000040000fa
:04afe400cfff00009b
:020000040000fa
:04afe8007fff0000e7
:020000040000fa
:04afec007bff0000e7
:020000040000fa
:04aff000b8ff0000a6
:020000040000fa
:04aff400ffff00005b
:00000001FF
