:020000040000fa
:080000000002040000000000f2
:020000040000fa
:0400080040070000ad
:020000040000fa
:04000c0040070000a9
:020000040000fa
:0400100040070000a5
:020000040000fa
:0400140040070000a1
:020000040000fa
:04001800400700009d
:020000040000fa
:04001c004007000099
:020000040000fa
:040020004007000095
:020000040000fa
:040024004007000091
:020000040000fa
:04002800400700008d
:020000040000fa
:04002c00fa020000d4
:020000040000fa
:040030004007000085
:020000040000fa
:04003400560500006d
:020000040000fa
:04003800400700007d
:020000040000fa
:04003c006603000057
:020000040000fa
:040040004007000075
:020000040000fa
:040044009205000021
:020000040000fa
:04004800f8050000b7
:020000040000fa
:04004c004007000069
:020000040000fa
:040050004007000065
:020000040000fa
:040054004007000061
:020000040000fa
:040058001407000089
:020000040000fa
:04005c00a8040000f4
:020000040000fa
:040060004007000055
:020000040000fa
:040064004007000051
:020000040000fa
:04006800400700004d
:020000040000fa
:04006c004007000049
:020000040000fa
:040070004007000045
:020000040000fa
:040074004007000041
:020000040000fa
:04007800400700003d
:020000040000fa
:04007c004007000039
:020000040000fa
:040080004007000035
:020000040000fa
:040084004007000031
:020000040000fa
:04008800400700002d
:020000040000fa
:04008c004007000029
:020000040000fa
:040090004007000025
:020000040000fa
:040094000206000060
:020000040000fa
:04009800400700001d
:020000040000fa
:04009c004007000019
:020000040000fa
:0400a0004007000015
:020000040000fa
:0400a4004007000011
:020000040000fa
:0400a800400700000d
:020000040000fa
:0400ac004007000009
:020000040000fa
:0400b0004007000005
:020000040000fa
:0400b4004007000001
:020000040000fa
:0400b80040070000fd
:020000040000fa
:0400bc00d00300006d
:020000040000fa
:0400c0003c040000fc
:020000040000fa
:0400c40040070000f1
:020000040000fa
:0400c80040070000ed
:020000040000fa
:0400cc0040070000e9
:020000040000fa
:0400d00040070000e5
:020000040000fa
:0400d40040070000e1
:020000040000fa
:0400d80040070000dd
:020000040000fa
:0400dc0040070000d9
:020000040000fa
:0400e00040070000d5
:020000040000fa
:0400e40040070000d1
:020000040000fa
:0400e80040070000cd
:020000040000fa
:0400ec0040070000c9
:020000040000fa
:0400f00040070000c5
:020000040000fa
:0400f40040070000c1
:020000040000fa
:0400f80040070000bd
:020000040000fa
:0400fc0040070000b9
:020000040000fa
:0401000040070000b4
:020000040000fa
:0401040040070000b0
:020000040000fa
:0401080040070000ac
:020000040000fa
:04010c0040070000a8
:020000040000fa
:0401100040070000a4
:020000040000fa
:0401140040070000a0
:020000040000fa
:04011800400700009c
:020000040000fa
:04011c004007000098
:020000040000fa
:040120004007000094
:020000040000fa
:040124004007000090
:020000040000fa
:04012800400700008c
:020000040000fa
:04012c004007000088
:020000040000fa
:040130004007000084
:020000040000fa
:040134004007000080
:020000040000fa
:04013800400700007c
:020000040000fa
:04013c004007000078
:020000040000fa
:040140004007000074
:020000040000fa
:040144004007000070
:020000040000fa
:04014800400700006c
:020000040000fa
:04014c004007000068
:020000040000fa
:040150004007000064
:020000040000fa
:040154004007000060
:020000040000fa
:04015800400700005c
:020000040000fa
:04015c004007000058
:020000040000fa
:040160004007000054
:020000040000fa
:040164004007000050
:020000040000fa
:04016800400700004c
:020000040000fa
:04016c004007000048
:020000040000fa
:040170004007000044
:020000040000fa
:040174004007000040
:020000040000fa
:04017800400700003c
:020000040000fa
:04017c004007000038
:020000040000fa
:040180004007000034
:020000040000fa
:040184004007000030
:020000040000fa
:04018800400700002c
:020000040000fa
:04018c004007000028
:020000040000fa
:040190004007000024
:020000040000fa
:040194004007000020
:020000040000fa
:04019800400700001c
:020000040000fa
:04019c004007000018
:020000040000fa
:0401a0004007000014
:020000040000fa
:0401a4004007000010
:020000040000fa
:0401a800400700000c
:020000040000fa
:0401ac004007000008
:020000040000fa
:0401b0004007000004
:020000040000fa
:0401b4004007000000
:020000040000fa
:0401b80040070000fc
:020000040000fa
:0401bc0040070000f8
:020000040000fa
:0401c00040070000f4
:020000040000fa
:0401c40040070000f0
:020000040000fa
:0401c80040070000ec
:020000040000fa
:0401cc0040070000e8
:020000040000fa
:0401d00040070000e4
:020000040000fa
:0401d40040070000e0
:020000040000fa
:0401d80040070000dc
:020000040000fa
:0401dc0040070000d8
:020000040000fa
:0401e00040070000d4
:020000040000fa
:0401e40040070000d0
:020000040000fa
:0401e80040070000cc
:020000040000fa
:0401ec0040070000c8
:020000040000fa
:0401f00040070000c4
:020000040000fa
:0401f40040070000c0
:020000040000fa
:0401f80040070000bc
:020000040000fa
:0401fc0040070000b8
:020000040000fa
:0402000040070000b3
:020000040000fa
:0402040040070000af
:020000040000fa
:0402080040070000ab
:020000040000fa
:04020c0040070000a7
:020000040000fa
:0402100040070000a3
:020000040000fa
:04021400400700009f
:020000040000fa
:04021800400700009b
:020000040000fa
:04021c004007000097
:020000040000fa
:040220004007000093
:020000040000fa
:04022400400700008f
:020000040000fa
:04022800400700008b
:020000040000fa
:04022c004007000087
:020000040000fa
:040230004007000083
:020000040000fa
:04023400400700007f
:020000040000fa
:04023800400700007b
:020000040000fa
:04023c004007000077
:020000040000fa
:040240004007000073
:020000040000fa
:04024400400700006f
:020000040000fa
:04024800400700006b
:020000040000fa
:04024c004007000067
:020000040000fa
:040250004007000063
:020000040000fa
:04025400400700005f
:020000040000fa
:04025800400700005b
:020000040000fa
:04025c004007000057
:020000040000fa
:040260004007000053
:020000040000fa
:04026400400700004f
:020000040000fa
:04026800400700004b
:020000040000fa
:04026c004007000047
:020000040000fa
:040270004007000043
:020000040000fa
:04027400400700003f
:020000040000fa
:04027800400700003b
:020000040000fa
:04027c004007000037
:020000040000fa
:040280004007000033
:020000040000fa
:10040000ef1721000eff21000e0188000000000000
:10041000000020000000e000020032000001200087
:100420002002880014000700970207000000e00087
:1004300003003a00801d2100010020000200370067
:100440000000200001002000810f70000100320038
:100450000f000700000020000000e0000200320052
:1004600000000200000000008407020000000000fd
:100470000040da000000fe00200020000000e00044
:1004800002003200100020009001880000000600e9
:10049000a1028800800478000000eb001f003700f4
:1004a000e284440054a0b4009905ba00e2844400f8
:1004b00054a0b4009906ba00e284440054a0b400e9
:1004c0000006eb00476fde00fd07b200ae018800ba
:1004d000636ce10003003a000ad801000000eb0061
:1004e0000e003700606ce10008003a00004deb00a0
:1004f0000a05e800020039003420ec000af0a000f0
:100500008b05e900f9ff3e00040037006168e10057
:10051000010032000086eb000b00070019c7ba008b
:100520000e04e0001905ba0003003a000a00e000da
:10053000dbff3a0000000600fe07b200ae028800b2
:100540008a047800f5ff37000cd0a300e20f4d00bd
:100550001c00390089027800354dba000a05e80010
:10056000020039003420ec000af0a0008b05e900fd
:100570000f003200254dba000a05e80002003900dc
:100580003420ec000af0a0008b05e90008003200de
:100590000c00e0000600320015cdba000a05e800a4
:1005a000020039003420ec000af0a0008b05e900bd
:1005b0008984e80054a0b4000b00e000e2ff3a0098
:1005c000000006009902ba00055d78008b05e9007d
:1005d000f7ff3200c82ade00055d78008b05e900d0
:1005e000f3ff32000c00e000f1ff320019ddba0029
:1005f000eeff3700809fbe000000fa00917080007f
:1006000000022000008060000000e00009003a00c5
:10061000200a8000a0818800a18180006081800084
:1006200000805000d080880010c0b3004df0b700ab
:1006300005003700200a8000608188000200370032
:10064000200a800050818800000a80006800600055
:100650000000e000faff3a00d180800000f02e0098
:10066000808f500004003e00d1808000f06128009f
:10067000808f500011003e00010a800080ff2f0093
:1006800000806000000a88000000000000000000f8
:10069000000000000000000000000000010a8000cf
:1006a00080ff2f00008060000000a000000a88008a
:1006b0004d70ef0000b02e00d08088000028a90007
:1006c0000080fa004f00be0000400600809fbe0080
:1006d0000000fa0090708000700060000000e000f0
:1006e00009003a00600a8000b0818800b181800072
:1006f0007081800000805000b080880010c0b3007e
:100700004bf0b70005003700600a80007081880058
:1007100002003700600a800050818800400a800093
:10072000680060000000e000faff3a00b18080003d
:1007300000f02e00808f500004003e00b180800049
:10074000f0612800808f500011003e00410a8000b7
:1007500080ff2f0000806000400a88000000000039
:100760000000000000000000000000000000000089
:10077000410a800080ff2f00008060000000a00080
:10078000400a88004b70ef0000a92b00b080880061
:1007900000a8a9000080fa004f00be00004006003b
:1007a000809fbe000000fa00917080000040200091
:1007b000008060000000e00009003a00a00a80000c
:1007c000c0818800c181800080818000008050004d
:1007d000a080880010c0b3004af0b70005003700c1
:1007e000a00a80008081880002003700a00a8000f3
:1007f00050818800800a8000680060000000e000ee
:10080000faff3a00a180800000f02e00808f500097
:1008100004003e00a1808000f0612800808f50001d
:1008200011003e00810a800080ff2f0000806000e0
:10083000800a8800000000000000000000000000a6
:100840000000000000000000810a800080ff2f00ef
:10085000008060000000a000800a88004a70ef005d
:1008600000a92b00a080880004a8a9000080fa003d
:100870004f00be0000400600809fbe000000fa004e
:100880009170800000042000008060000000e00003
:1008900009003a00e00a8000d0818800d181800000
:1008a0009081800000805000c080880010c0b3009c
:1008b0004cf0b70005003700e00a80009081880006
:1008c00002003700e00a800050818800c00a8000e2
:1008d000680060000000e000faff3a00c18080007c
:1008e00000f02e00808f500004003e00c180800088
:1008f000f0612800808f500011003e00c10a800086
:1009000080ff2f0000806000c00a88000000000007
:1009100000000000000000000000000000000000d7
:10092000c10a800080ff2f00008060000000a0004e
:10093000c00a88004c70ef0000a92b00c08088001e
:1009400004c8a9000080fa004f00be000040060065
:10095000809fbe00829fbe003200f8003400f80085
:1009600010002000a00188001000200090018800e5
:10097000000000000000fa0000188000908088004d
:100980001018800080808800818080009080800026
:10099000008050002081880091082100914078005b
:1009a00030c6b30080cf50001b003e0089d0bf008e
:1009b0000080fb0080004000c00821000080400053
:1009c000100078005084880089d0bf000080fb00b0
:1009d0002181800000014000c0082100000041008a
:1009e00001087800a28a8000b38a800050848000c9
:1009f000cf80de00000151008181590020818000fc
:100a0000cf80de000200400083804800a08a88007a
:100a1000b18a88001b0037008970ef0089d0bf00c1
:100a20000080fb0080004000c008210000804000e2
:100a3000100078005084880089d0bf000080fb003f
:100a40002181800000014000c00821000000410019
:100a500001087800a28a8000b38a80005084800058
:100a6000cf80de000001510081815900208180008b
:100a7000cf80de000200400083804800a08a88000a
:100a8000b18a880089d0bf000040e80089f0b70033
:100a900001a8a9000080fa003400f9003200f90032
:100aa0004f01be004f00be0000400600809fbe0008
:100ab000821f78000000fa000068a90001d0bf0082
:100ac0000004e00002003a0010c0b30001f0b700db
:100ad000207080006800600000f0a7000000ea00bd
:100ae0000000e9004f00de00004078000080fb00bd
:100af000610060004300dd002270800071ff2f0064
:100b000081006100010070002070880010c0b300f7
:100b100000f0b7000080fa004f0178004f00be00df
:100b200000400600801f78000000fa004ad0bf0095
:100b3000e14f500003003a0020c0b3004af0b70074
:100b4000010037004a70ef004bd0bf00e14f50006a
:100b500003003a0020c0b3004bf0b700010037009b
:100b60004b70ef004cd0bf00e14f500003003a0043
:100b700020c0b3004cf0b700010037004c70ef000c
:100b80004dd0bf00e14f500003003a0020c0b30039
:100b90004df0b700010037004d70ef004ad0bf00a4
:100ba0000004e0000c003a004bd0bf000004e0005d
:100bb00009003a00808280003061880080828000d5
:100bc000306288004e70ef008370ef008770ef0096
:100bd0008870ef000200370010c0b3004ef0b7007d
:100be00000e8a9000080fa004f00780000400600ed
:100bf0000000fa0013e1a9000108a9000080fa0032
:100c0000004006003600f800809fbe00829fbe00b4
:100c1000849fbe00869fbe000000fa000368a90002
:100c2000a08a8000b18a80001027b0000180b00047
:100c30004206200003002000940007000000780016
:100c4000c08a880070d0bf00e84f50000b003e0003
:100c500070d0bf000080fb00c18a8000000140000e
:100c6000c0052100000041000108780070d0bf00dd
:100c70000040e80070f0b7006400370070d0bf009b
:100c80000080fb00c18a800000014000c0052100f7
:100c90000000410001087800e08280006101b90095
:100ca000f0828000cf80de00020140008381480096
:100cb00000838000cf80de00020140008381480075
:100cc00010838000cf80de00020140008381480055
:100cd00020838000cf80de00020140008381480035
:100ce00030838000cf80de00020140008381480015
:100cf00040838000cf80de000201400083814800f5
:100d000050838000cf80de000201400083814800d4
:100d100060838000cf80de000201400083814800b4
:100d200070838000cf80de00020040008380480096
:100d3000a2002000030020005400070000007800fb
:100d40003081880030818000cf80de00625e20002c
:100d50008289b900e002b9008401780003014100f2
:100d6000635e20000300b8000101410082007800aa
:100d7000823e20000300200044000700d08388004a
:100d8000e1838800d2838000e38380000080eb0051
:100d90008080eb00800f5100818f590009003500e1
:100da000d2838000e3838000100020000100200037
:100db000800f5100818f590002003c007a30ef0013
:100dc0007c30ef00b2838000c3838000d08380003a
:100dd000e18380000200400083804800b0838800e7
:100de000c1838800b0838000c1838000a2002000fe
:100df000030020002500070000007800a083880081
:100e00007070ef0010c0b30071f0b7000080fa00fe
:100e10004f03be004f02be004f01be004f00be0098
:100e20003600f900004006003600f800809fbe0042
:100e3000829fbe00849fbe00869fbe000000fa0015
:100e400000d0bf000004e00003003a005ad1bf0008
:100e50000004e00002003a000070ef00b604070052
:100e60000188a9000080fa004f03be004f02be00b7
:100e70004f01be004f00be003600f90000400600e2
:100e80000040da000000fe0000000500839f6800bb
:100e90000100e00002003d0060001000e08018004a
:100ea0000300e00002003d0060011100e081190034
:100eb000050007004f00e00002003b00600010004a
:100ec000e0801800000006006022b8000602200042
:100ed0000000d0008180d2000482d2008582d2003e
:100ee0000000a0000202520083825a000300310079
:100ef0000202420083824a000000a1000603e900ca
:080f0000f3ff3a0000000600b7
:020000040000fa
:100f08000400fa00042eef00142eef003000200039
:100f180000708800d04f2000807088000c2eef00f1
:100f280000472000e07088000a2eef001a2eef001c
:100f3800062eef00162eef0030002000707088009b
:100f480010002000f0708800113a8000f00b20009b
:100f580000816000600420007105200023742000d7
:100f6800804978008149780082497800813580007d
:100f7800f00f2800808060000060220001007000ef
:100f8800803588008135800000f82f00808060005f
:100f9800a0022000010070008035880071358000b3
:100fa80000f82f00808060005002200001007000cf
:100fb8007035880071358000f00f2800808060004f
:100fc8000040220001007000703588002136800042
:100fd80000f82f008080600070022000010070007f
:100fe800203688003134800000fc2f00008060002b
:100ff8000000a00030348800103a8000000178001a
:101008000260a00060042000710520002374200005
:1010180080497800814978008249780000042300db
:10102800203a88004827ef004e27ef0030042000c0
:10103800303a88004420a90044c0a90044e0a9002f
:101048004480a9001200200080072000a109200088
:1010580033742000804978008149780082497800fb
:101068001200200060042000710520002374200075
:1010780080497800814978008249780000000000a2
:10108800103a8000610060000000e000fcff3a00b8
:1010980031428000f0f82f00008060000040a0007e
:1010a8003042880001428000f0f82f000080600084
:1010b8000040a0000042880091428000f0f82f0014
:1010c800008060000040a00090428800114280002b
:1010d800f0f82f00008060000040a0001042880057
:1010e80091428000f08f2f00008060000080a000f7
:1010f8009042880010c02100000a88004221ef00b9
:101108000028a9002028a80010c02100400a880053
:101118004a21ef0000a8a90020a8a80010c02100bb
:10112800800a88005221ef0004a8a90024a8a8007a
:1011380010c02100c00a88005a21ef0004c8a90085
:1011480024c8a800404e28000019880021e3a900ff
:10115800804020001019880030f0210020198800f4
:1011680000102000401988002e23ef007000200096
:10117800801988003223ef002623ef0060c0b300f7
:1011880024e3b7002119800000f02100010070005d
:101198002019880021a8a80021e3a8000021ef0059
:1011a800e093270010088800000328002008880022
:1011b8000068a9002068a80005e1a8000170ef00f8
:1011c8000000000001d0bf000004e000fdff320075
:1011d80040002000106088000080eb00206088003c
:1011e800062cef000a2cef001a2cef001e2cef0043
:1011f80000082000006188000008200000628800c4
:10120800000820000063880000402700e3c1200098
:1012180011322400d2bc2a008209780081097800a2
:101228001061880000402700e3c12000113224002b
:10123800d2bc2a00820978008109780010628800ef
:101248000000eb00e3c1200011322400d2bc2a00c8
:10125800820978008109780010638800b00f2000a7
:10126800e3c1200011322400d2bc2a008209780090
:101278008109780020618800b00f2000e3c12000b8
:1012880011322400d2bc2a00820978008109780032
:1012980020628800b00f2000e3c120001132240032
:1012a800d2bc2a008209780081097800206388006e
:1012b800262cef00462cef00662cef00282cef00c0
:1012c800482cef00682cef002a2cef004a2cef0086
:1012d8006a2cef002c2cef004c2cef006c2cef004c
:1012e800322cef00522cef00722cef00342cef0060
:1012f800542cef00742cef003a2cef005a2cef001e
:101308007a2cef003c2cef005c2cef007c2cef00db
:101318003e2cef005e2cef007e2cef0001eca800c5
:101328000621ef001021ef00603f2c0060088800c4
:1013380081088000f0fc2f00008060000050a000b1
:101348008008880000e8a90020e8a80011e1a800aa
:101358000a21ef001221ef00404f2f00700888008b
:1013680091088000000320000100700090088800a8
:101378000108a9002108a80013e1a9001421ef0021
:101388001e21ef0060872f00d0088800f108800038
:10139800f0fc2f0000806000f00888000368a900b6
:1013a8002368a8001fe1a800048ea80000012000ff
:1013b8004011880020a2a9000111800090ff2f0091
:1013c80000806000001188002002a9002162a900a5
:1013d8002062a90023c2a90021e2a8006000b80089
:1013e800008fbe000500370000000000120020003a
:1013f800030020001e0f41005e974900f0232400df
:10140800f10020001e0178009e019000800f51001d
:10141800818f5900f4ff34002342a8006000b8000f
:10142800008fbe00050037000000000012002000f9
:10143800030020001e0f41005e974900f02324009e
:10144800f10020001e0178009e019000800f5100dd
:10145800818f5900f4ff34000230ef00046ea900b8
:10146800048ea900a0c0b30028f0b70000a228008d
:10147800e081880000a92b00f081880000b02e00d0
:1014880000828800000e26001082880000072300d2
:1014980030828800308280000000ea0020828800c4
:1014a80000102000408288004a70ef004b70ef0067
:1014b8004c70ef004d70ef004e70ef00807521000a
:1014c800808288000e70ef001c30ef001e30ef00a5
:1014d8008370ef008430ef005a30ef007070ef0037
:1014e8007170ef007270ef007e70ef002630ef0031
:1014f8008670ef008770ef008870ef008970ef004a
:101508007a30ef007c30ef007630ef007830ef0073
:101518007430ef0010c0b3000ff0b70030002000a7
:1015280060808800010037000000000000d0bf0084
:101538000004e00003003a005ad1bf000004e000b4
:10154800f9ff3a000070ef00f9020700f7ff3700d3
:101558000200fa00000f78001e00780000407800b2
:101568006f40600008f0b700000f20001e00600008
:101578004400de000040780009f0b70000f02000c9
:101588001e0060004800de00004078000af0b70046
:101598001e0078004c00de00004078000bf0b70019
:1015a8000080fa00000006000400fa00000f78002e
:1015b800110798000ed0bf000004e00018003a00a0
:1015c8001e00780000407800ef40600000c9b300ba
:1015d80000c0400004f0b700000f20001e006000ab
:1015e8004400de00004078000042b00005f0b7007b
:1015f80000f020001e0060004800de000040780077
:101608000043b00006f0b7001e0078004c00de0072
:10161800004078000044b00007f0b7001900370018
:101628001e009000004078006f406000704040004d
:1016380004f0b7009e009000000f200000806000ba
:101648004400de008040780000cab30000c04000bb
:1016580005f0b7009e00900000f0200000806000b8
:101668004800de00004078000043b00006f0b700f4
:101678001e0090004c00de00004078000044b000de
:1016880007f0b7000080fa00000006000600fa0024
:10169800000f780011079800220798000ed0bf00ad
:1016a8000000fb00e10f50001c003200e20f500068
:1016b800340032000000e0004c003a001e007800c0
:1016c80000407800ef40600000c9b30000c040004f
:1016d80004f0b700000f20001e0060004400de0088
:1016e800004078000042b00005f0b70000f020008c
:1016f8001e0060004800de00004078000043b00093
:1017080006f0b7001e0078004c00de0000407800ac
:101718000044b00007f0b700340037001e00900006
:10172800004078006f4060007040400004f0b7004f
:101738009e009000000f2000008060004400de0042
:101748008040780000cab30000c0400005f0b70030
:101758009e00900000f02000008060004800de003d
:10176800004078000043b00006f0b7001e0090006b
:101778004c00de00004078000044b00007f0b700dd
:101788001a0037002e009000004078006f4060007b
:101798007040400004f0b700ae009000000f200039
:1017a800008060004400de00004078000042b00085
:1017b80005f0b700ae00900000f020000080600047
:1017c8004800de008040780000cbb30000c0400035
:1017d80006f0b7002e0090004c00de0000407800b4
:1017e8000044b00007f0b700000000000080fa00d5
:1017f800000006000800fa00000f780011079800a2
:1018080022079800330798000ed0bf000000fb00a5
:10181800e10f500022003200e10f500003003c00ad
:101828000000e000060032006b003700e20f5000b5
:1018380035003200e30f50004d00320066003700db
:101848001e00780000407800ef40600000c9b30037
:1018580000c0400004f0b700000f20001e00600028
:101868004400de00004078000042b00005f0b700f8
:1018780000f020001e0060004800de0000407800f4
:101888000043b00006f0b7001e0078004c00de00f0
:10189800004078000044b00007f0b7004e00370061
:1018a8001e009000004078006f40600070404000cb
:1018b80004f0b7009e009000000f20000080600038
:1018c8004400de008040780000cab30000c0400039
:1018d80005f0b7009e00900000f020000080600036
:1018e8004800de00004078000043b00006f0b70072
:1018f8001e0090004c00de00004078000044b0005c
:1019080007f0b700340037002e0090000040780040
:101918006f4060007040400004f0b700ae009000d7
:10192800000f2000008060004400de0000407800c6
:101938000042b00005f0b700ae00900000f02000b3
:10194800008060004800de008040780000cbb300d3
:1019580000c0400006f0b7002e0090004c00de00ea
:10196800004078000044b00007f0b7001a003700c4
:101978003e009000004078006f40600070404000da
:1019880004f0b700be009000000f20000080600047
:101998004400de00004078000042b00005f0b700c7
:1019a800be00900000f02000008060004800de00cb
:1019b800004078000043b00006f0b7003e009000f9
:1019c8004c00de008040780000ccb30000c040002e
:1019d80007f0b700000000000080fa0000000600d1
:1019e8000000fa00308180000000e00003003400ad
:1019f800046ea900048ea80008003700308180001a
:101a08000000e00003003d00046ea800048ea90059
:101a180002003700046ea900048ea9000080fa00b5
:101a2800000006000200fa00000f780040828000e3
:101a38000000ea009e0f500007003d004082800031
:101a48009e007800808f500003003d000000eb00ee
:101a5800000f7800100037001e0078000000e0003a
:101a680007003400308280009e007800808f50008c
:101a78000900340031828000010f78000600370029
:101a8800208280009e007800808f500002003d0078
:101a980021828000010f78001e0078000080fa0083
:101aa800000006000000fa004ed0bf00e14f5000d1
:101ab80012003a00908280000000e00001003d0022
:101ac800670040004380de0080007800808280004c
:101ad800008040003061880081828000a082800000
:101ae8000000e00001003d00670040004380de0088
:101af8000080500030628800040037008082800037
:101b08003061880080828000306288000080fa009e
:101b1800000006000000fa00a1808000f08180002b
:101b280000805000e0808800e0808000bdff070052
:101b3800e0808800b1808000f08180000080500043
:101b4800f0808800f0808000b6ff0700f0808800f1
:101b5800c1808000f08180000080500000818800f2
:101b680000818000afff070000818800d1808000dd
:101b7800f081800000805000108188001081800072
:101b8800a8ff070010818800108180000000e00095
:101b98000a003d00e1808000f08080000080500055
:101ba80090828800f08080008000ea00e080800059
:101bb80000805000a082880008003700f180800073
:101bc800e08080000080400090828800f1808000e2
:101bd800e080800000805000a08288009082800011
:101be80090ff070090828800a08280008dff070088
:101bf800a08288000080fa00000006000000fa00b9
:101c080087d0bf00e14f500002003a005630ef0085
:101c18005830ef0021818000c0828000808f500002
:101c28000200340020818000c08288002181800069
:101c3800b0828000808f500002003d00208180002b
:101c4800b08288000080fa00000006000200fa0056
:101c5800000f780087d0bf00e14f500002003a0023
:101c68005630ef005830ef00c08280009e007800a8
:101c7800808f5000020034009e007800c1828800e6
:101c8800b08280009e007800808f500002003d00e6
:101c98009e007800b18288000080fa0000000600eb
:101ca8000200fa00000f780087d0bf00e14f500013
:101cb80003003a000080eb00b08288005830ef0043
:101cc800c08280009e0f5000020031001e00780084
:101cd800c0828800b08280009e0f5000020036004b
:101ce8001e007800b08288000080fa00000006001c
:101cf8000000fa0083d0bf000004e0001a003a0098
:101d080087d0bf00e14f50000300320088d0bf00e9
:101d1800e14f500011003a0082d0bf00e14f50005f
:101d28000e00320010c0b30083f0b70010c0b3003b
:101d380082f0b7005a30ef007630ef007830ef00cd
:101d48008082800030618800808280003062880054
:101d58007170ef007270ef00880037006dff0700a8
:101d680050ff07008500370071d0bf00e14f5000d9
:101d780082003a0072d0bf00e14f50000a003a00da
:101d88007270ef00a08380000000e00003003400c0
:101d980010c0b3007ef0b700010037007e70ef007e
:101da8007430ef005f003700d0828000e10f5000f0
:101db80029003e0087d0bf00e14f500013003a00d1
:101dc800208280000000e00001003d006700400024
:101dd8004380de0080007800808280000080400020
:101de80030618800208280000000e00001003d0092
:101df800670040004380de00800078008082800019
:101e08000080400030628800460037003082800041
:101e18000000e00001003d00670040004380de0054
:101e28008000780080828000008040003061880057
:101e3800308280000000e00001003d0067004000a3
:101e48004380de00800078008082800000804000af
:101e58003062880033003700208180006101b900ba
:101e680020818000cf80de00809ab900828bb90083
:101e780086027800050242000010b8000102420004
:101e880084007800440add00cc02de00850272007e
:101e98004402dd0002712200030020000400be009d
:101ea800f8fb07000000780000848800a083800009
:101eb8000000e0000e003500a0838000800078005c
:101ec800008480008080400080702000808f500057
:101ed8001400360080828000306188008082800093
:101ee8003062880010c0b30086f0b7000d003700dc
:101ef800a0838000800078000084800080805000eb
:101f0800708f2f00808f500006003e008082800076
:101f180030618800808280003062880010c0b30081
:101f280086f0b700d08280000000e800d0828800e8
:101f38007170ef0010c0b30082f0b70086d0bf0008
:101f4800e14f50000d003a0028d0bf000000fb0010
:101f58008000ea0020818000808f500007003d004b
:101f680028d0bf008000fb0020818000808f5000b7
:101f7800020034008370ef008670ef000080fa00e2
:101f8800000006000000fa0071d0bf00e14f5000c9
:101f980007003a00d0838000e18380008000780049
:101fa800a083800000804000a08388007170ef004b
:101fb8000080fa00000006000c00fa0050079800a4
:101fc8005e0090000000e00004003d005e0090000c
:101fd8000000ea00500798000100370000000000e8
:101fe8000000eb00000f78000000eb0010079800dd
:101ff8000000eb00200798000000eb003007980075
:102008000000eb0040079800de009000803e2000b2
:1020180000017800110009008200d80030079800fc
:10202800de009000803e20000001780011000900c9
:102038008200d8008000fd00400798004e00900004
:10204800c200de00b04721000008b8000100d1003e
:10205800200798004e019000c210de00b047210012
:102068000008b8008100d100400620008088b9002f
:102078000000510040079800ce009000d0cc2c0002
:102088000008b8004308de00100798004e019000d1
:10209800d0cc2c000010b8004308de00ea00b900dc
:1020a80000005100000f78003e0090004c00dd0059
:1020b8009e0040002e0090004800dd008080400017
:1020c8001e0090004400dd0000804000400798009a
:1020d8004e0090000080fa00000006000000fa00a0
:1020e8000181800000712200808f500004003400bc
:1020f8008770ef0010c0b30088f0b7000a003700ff
:1021080001818000008f2d00808f500004003d0069
:1021180010c0b30087f0b7008870ef0002003700e6
:102128008770ef008870ef000080fa00000006005a
:102138000200fa00111180000040200000806000b9
:102148000000e0007a0032000040eb00004f780009
:102158000040eb001047980011118000002020007b
:10216800008060000000e00071003a005a71ef0042
:10217800530037001e80fb00f100b900ee0040005c
:10218800c015210000804000104078000004e000e5
:1021980024003a001e80fb00f100b900800078009e
:1021a800b01621000080400011c0b300014878003b
:1021b8001e80fb00f100b90080007800b0152100f6
:1021c8000080400072c0b3009e4090005a00070093
:1021d800104798001e409000e64f500005003e0052
:1021e8001111800000202000008060000000e00045
:1021f80037003a001e409000e74f500009003a00af
:102208000040eb00104798001e80fb00f100b90069
:1022180080007800a01621000080400011c0b300a3
:10222800014878001e80fb00f100b900ee00400074
:10223800c015210000804000104078000004e00034
:102248001e003a001e80fb00f100b900e6004000c5
:10225800b0152100008040000000e80082c0b300f3
:102268009e40900034000700104798001e409000e0
:10227800e64f500005003e001111800000202000ac
:10228800008060000000e00013003a001e4090004b
:10229800e74f500009003a000040eb001047980053
:1022a8001e80fb00f100b90080007800a016210014
:1022b8000080400011c0b300014878001e4fe800bc
:1022c8001e407800e14f5000aaff36000300370097
:1022d8000000000001003700000000001e407800e8
:1022e800e14f5000020036000040eb00004f78003c
:1022f8001e4078000004e0000d003a001e409000e7
:102308000004e0000a003a0010c0b3005af1b70018
:1023180000000000111180000020200000806000f3
:102328000000e000fbff3a00a00020002011880018
:102338000080fa00000006000400fa00000f780090
:1023480021479800324798000e003700111180008d
:1023580000202000008060000000e0000e003a002d
:102368002e4090000080fb001e00400010407800c6
:102378000000fb00201188002e4090000040e8007b
:1023880020479800ae4090003e40900080cf50001b
:10239800eeff390001003700000000002e409000d9
:0823a8000080fa0000000600ad
:020000040000fa
:1023b000001000005a010000800000005a110000c7
:1023c000240000008200000001616e00676c65005f
:1023d0003a002000202020002020200020000000c3
:1023e000677972006f203a00002020002020200032
:0c23f00020202000000000000000000081
:020000040000fa
:04afe000cfff00009f
:020000040000fa
:04afe400cfff00009b
:020000040000fa
:04afe8007fff0000e7
:020000040000fa
:04afec007bff0000e7
:020000040000fa
:04aff000b8ff0000a6
:020000040000fa
:04aff400ffff00005b
:00000001FF
